S01D00005A425F52543037305F56315F305F305F3235303131342E7333370F
S3150800000000100020A54D04081514040889140408D6
S31508000010AF4D04088D14040891140408AF4D040864
S31508000020AF4D0408AF4D0408AF4D0408AF4D0408A2
S3150800003095140408AF4D0408AF4D0408AF4D0408E5
S31508000040AF4D0408AF4D0408AF4D0408AF4D040882
S31508000050AF4D0408AF4D0408AF4D0408AF4D040872
S31508000060AF4D0408B9FE0308B5FE0308AF4D0408F2
S31508000070AF4D0408AF4D0408AF4D0408AF4D040852
S31508000080AF4D0408AF4D0408AF4D0408AF4D040842
S31508000090AF4D0408290F0408AF4D0408AF4D0408F6
S315080000A0AF4D04081316040805160408AF4D0408D6
S315080000B0AF4D040843BC0308E7C30308B9C30308E4
S315080000C0B7C3030859BD0308E5C30308BBC3030840
S315080000D0BFC30308BDC3030851C4030821C40308EA
S315080000E0AF4D0408AF4D0408FD2F0408AF4D0408B2
S315080000F0AF4D0408AF4D0408AF4D0408AF4D0408D2
S31508000100AF4D0408AF4D0408AF4D0408AF4D0408C1
S31508000110AF4D0408AF4D0408AF4D0408AF4D0408B1
S31508000120AF4D0408AF4D0408AF4D0408AF4D0408A1
S31508000130AF4D0408AF4D0408AF4D0408AF4D040891
S31508000140AF4D0408AF4D0408AF4D04080F990308D6
S315080001504DCE0308AF4D0408794C04087D4C0408BD
S31508000160AF4D0408AF4D0408AF4D0408AF4D040861
S31508000170000000000000F03F0000000000002440DE
S3150800018000000000000059400000000000408F40B9
S31508000190000000000088C34000000000006AF84024
S315080001A00000000080842E4100000000D012634148
S315080001B00000000084D797410000000065CDCD41BE
S315080001C05072652D52656C6561736500416C706887
S315080001D061203100416C706861203200416C7068A2
S315080001E06120330042657461203100004265746104
S315080001F02032000042657461203300004741000048
S315080002004572726F723A2044657669636520646F39
S315080002106573206E6F7420737570706F7274202505
S3150800022073206E6574776F726B20666F726D61747A
S31508000230696F6E0052583A205A444F2C20636F6DEE
S315080002406D616E642030782532782C207374617461
S3150800025075733A20307825580000000052583A2025
S3150800026041637469766520455020526573706F6ED8
S3150800027073652C20436F756E743A20256400000060
S3150800028050726F66696C653A20257020283078258B
S315080002903258292C20436C75737465723A2030786D
S315080002A02532582C2025642062797465732C000049
S315080002B000000000C001000811000000CC01000881
S315080002C012000000D401000813000000DC01000839
S315080002D021000000E401000822000000EC010008EB
S315080002E023000000F4010008AA000000FC01000831
S315080002F0FF000000000000002570257055502030D2
S315080003007825325800000000454D4245525F0000EE
S315080003104E4554574F524B5F000000005472757398
S31508000320742043656E74657220455549206861736B
S315080003302025736368616E6765642E006E6F74208E
S315080003400000000025702570444F574E000000003D
S3150800035025704A4F494E2570000000005F46414906
S315080003604C454400454D4245525F4E4554574F5201
S315080003704B5F4F50454E45443A20256420736563CC
S3150800038000000000454D4245525F4E4554574F52B6
S315080003904B5F434C4F53454400000000757365207E
S315080003A0707265636F6E66696775726564206B65E2
S315080003B07900000073656E64206B657920696E208C
S315080003C074686520636C65617200000064656E7907
S315080003D0206A6F696E0000006E6F20616374696F32
S315080003E06E000000616C6C6F772072656A6F696ECB
S315080003F073206F6E6C79000073656375726564208F
S3150800040072656A6F696E0000554E7365637572652D
S3150800041064206A6F696E0000646576696365206C9E
S3150800042065667400554E73656375726564207265FA
S315080004306A6F696E00000000547275737420436514
S315080004406E746572204A6F696E2048616E646C65C9
S31508000450723A20737461747573203D2025702C20C0
S315080004606465636973696F6E203D202570202825B1
S3150800047078292C2073686F72746964203078253265
S31508000480780000005B5345434F4D5D204255545458
S315080004904F4E31205345434F4D5F54616D70657221
S315080004A020534C5F53494D504C455F425554544F69
S315080004B04E5F505245535345440D0A005B42545D06
S315080004C02053746F702043686172676520746F20CB
S315080004D06465746563742062617474657279205604
S315080004E06F6C74616765200D0A0000005B53454315
S315080004F04F4D5D20425554544F4E31205345434F7E
S315080005004D5F54616D70657220534C5F53494D5071
S315080005104C455F425554544F4E5F52454C454153E6
S3150800052045440D0A000000005B42545D203330202C
S31508000530736563204261636B20746F2042545F4386
S315080005406861726765537461747573200D0A0000DB
S315080005505B4E6574776F726B5D20454D4245525F01
S315080005604A4F494E45445F4E4554574F524B0D0A24
S31508000570000000005B4E6574776F726B5D20454D19
S315080005804245525F4A4F494E45445F4E4554574F80
S31508000590524B5F4E4F5F504152454E540D0A000074
S315080005A05B5345434F4D5D20425554544F4E3220C0
S315080005B05345434F4D5F4443436F6E6E65637420E6
S315080005C0534C5F53494D504C455F425554544F4E1A
S315080005D05F505245535345440D0A00005B5345434B
S315080005E04F4D5D20425554544F4E32205345434F8C
S315080005F04D5F4443436F6E6E65637420534C5F537F
S31508000600494D504C455F425554544F4E5F52454CE8
S3150800061045415345440D0A005B5345434F4D5D2004
S3150800062053656E64206261747465727920646973B7
S31508000630636F6E6E65637420616C61726D206F7690
S31508000640657220336D696E202C2042545F537461A5
S31508000650747573203D2578200D0A00005B4E65747D
S31508000660776F726B5D204E6574776F726B46696E35
S31508000670645F6576656E745F68616E646C65720D3D
S315080006800A0000005B4E6574776F726B5D205265D9
S3150800069067756C61725265706F72745F6576656EA8
S315080006A0745F68616E646C6572200D0A0000000054
S315080006B05B4E6574776F726B5D205265626F6F74FF
S315080006C05F6576656E745F68616E646C6572200D31
S315080006D00A0000005B4E6574776F726B5D204D6192
S315080006E0746368526573704576656E7446756E6395
S315080006F074696F6E200D0A005B4E6574776F726BB6
S315080007005D205A6F6E655374617465203D30782597
S315080007107820207A6F6E654964203D3078257820E8
S315080007200D0A00005B4E4554574F524B5D205B4502
S315080007304D4245525F4E4554574F524B5F55505D9B
S3150800074020416C726561647920456E726F6C6C200D
S315080007502D20446F207265706F7274200D0A000098
S315080007605B4E4554574F524B5D205B454D424552B3
S315080007705F4E4554574F524B5F55505D204E6F7430
S3150800078020456E726F6C6C202D20446F204D61746D
S315080007906368200D0A0000002D2D2D436F756E74B9
S315080007A065725F4661696C6C203D20256420204592
S315080007B06D626572436F756E746572203D2025649F
S315080007C0000000005B4E4554574F524B5D20454D87
S315080007D04245525F4E4554574F524B5F444F574E12
S315080007E02020262020454D4245525F4E4F5F4E45FC
S315080007F054574F524B2020202D2020436C656172A0
S315080008004E6574776F726B5461626C6573200D0A5E
S31508000810000000005B4E4554574F524B5D20454D36
S315080008204245525F4A4F494E5F4641494C4544202E
S315080008303A200D0A000000005B4E6574776F726BF4
S315080008405D20526561642052656A6F696E20446155
S315080008507461204661696C205265616452656A6FED
S31508000860696E537461747573203A20307825782040
S315080008700D0A00005B4E6574776F726B5D205265DA
S3150800088061642052656A6F696E2044617461205301
S315080008907563636573732052656A6F696E54696D13
S315080008A06573203D203078253278200D0A00000037
S315080008B05B4E6574776F726B5D2052656164434960
S315080008C045204164647265737320746F2061747483
S315080008D0726962757465203A2053554343455353EC
S315080008E0200D0A005B4944454E544946595D20533C
S315080008F074617274206964656E7469667954696D89
S3150800090065203D202564200D0A0000005B42545DE9
S31508000910203E20323930302042545F436861726786
S31508000920655374617475732053746F7020636861BE
S315080009307267650D0A0000005B42545D2042545FF1
S315080009404368617267655374617475732053746F75
S3150800095070206368617267650D0A00005B42545D2A
S315080009602046756C6C7920636861726765642C2013
S3150800097053746F7020636861726765202C0D0A00D6
S315080009804261747465727920446973636F6E6E652B
S315080009907420212120537461727420426C696E6B35
S315080009A0696E670D0A0000002A2A2A2A2A2A2A2A94
S315080009B02A2A2A2A2A2A2A2A2A2A2A2A2A2A2A2A89
S315080009C02A2A2A2A2A2A2A2A2A2A2A2A2A2A2A2A79
S315080009D02A2A2A2A2A2A2A2A2A2A2A2A2A2A2A2A69
S315080009E00D0A000020202020202020202020202062
S315080009F02020202020202020202573202020202091
S31508000A0020202020202020202020202020202020D8
S31508000A1020202020202020200D0A00005B4E65742F
S31508000A20776F726B5D2046696E64204349452044A2
S31508000A304556494345204D617463682043616C6C93
S31508000A406261636B202121200D0A00005B4E6574EC
S31508000A50776F726B5D20456D62657241665365728C
S31508000A6076696365446973636F76657279526573EF
S31508000A70756C7420737461747573203D30782532F3
S31508000A80782020207A646F52657175657374436C9B
S31508000A9075737465724964203D3078253278202054
S31508000AA06D61746368416464726573733D3078255B
S31508000AB0327820656D62657241664961735A6F6E58
S31508000AC065436C7573746572416D49456E726F6CDA
S31508000AD06C65643D2564200D0A0000005B4E657454
S31508000AE0776F726B5D204D415443485F44455343CD
S31508000AF0524950544F52535F5245515545535460CD
S31508000B00606060606060606060200D0A0000000040
S31508000B105B4E6574776F726B5D20726573756C7466
S31508000B202D3E7A646F52657175657374436C75737F
S31508000B307465724964203D3D204D415443485F44E5
S31508000B40455343524950544F52535F5245515545A8
S31508000B5053540D0A000000005B4E6574776F726B84
S31508000B605D2073657420636F6F7264696E61746F5C
S31508000B707220656E64706F696E7420746F202564C8
S31508000B80200D0A005B4E6574776F726B5D204669AF
S31508000B906E642073616D6520636C7573746572206D
S31508000BA0696420696E2062696E64696E6720746183
S31508000BB0626C6521212121005B4E6574776F726B2B
S31508000BC05D204E6F742046696E642073616D6520E2
S31508000BD0636C757374657220696420696E20626936
S31508000BE06E64696E67207461626C6521212121201B
S31508000BF04A75737420616464206974200D0A0000C4
S31508000C005B4E6574776F726B5D4572726F722061A9
S31508000C106464696E672062696E64696E6720656ED2
S31508000C207472793A203078257820200D0A00000061
S31508000C305B4E6574776F726B5D20416464696E679D
S31508000C4020656E74727920746F2069647820256433
S31508000C50200D0A005B4E6574776F726B5D204572D6
S31508000C60726F722073657474696E672062696E6448
S31508000C70696E67207461626C6520656E7472793A74
S31508000C802030782578200D0A000000005B4E657438
S31508000C90776F726B5D2057726974652043494520EA
S31508000CA04164647265737320746F20617474726929
S31508000CB062757465203A2053554343455353200DB6
S31508000CC00A0000005B4E6574776F726B5D20577281
S31508000CD06974652052656A6F696E20446174612083
S31508000CE04661696C20577269746552654A6F696E08
S31508000CF0537461747573203A2030782578200D0A6C
S31508000D00000000005B4E6574776F726B5D2057724A
S31508000D106974652052656A6F696E20446174612042
S31508000D20537563636573732052656A6F696E546998
S31508000D306D6573203D203078253278200D0A000035
S31508000D405B4E6574776F726B5D2053656E64205ACF
S31508000D506F6E655374617475734368616E67652059
S31508000D604D7367212120207A6F6E65207374617434
S31508000D707573203D2030782578200D0A0000000084
S31508000D80256C753A2530326C753A2530326C752EDD
S31508000D902530336C75200000080109020A030B048C
S31508000DA00C050D060E070F081001180119021A0383
S31508000DB01B041C051D061E071F082001210222030D
S31508000DC023042405250626072708280129022A03BD
S31508000DD02B042C052D062E072F0830013102380268
S31508000DE039043A08E004E104E204E802E902EA0404
S31508000DF0F008F110165A425F52543037305F5631B8
S31508000E002E302E302E3235303331380000000000B7
S31508000E1000000000000000000005410015DF010881
S31508000E20000560006DDC0108000548002BE101089B
S31508000E3003004100A118040803004200C51804086D
S31508000E4000800000000000000000200120000000D3
S31508000E50080000000500422122000000F40D0008E9
S31508000E60070030012000000000000000FDFF2102FD
S31508000E7020000000030000001200210223000000E9
S31508000E8000000000200020012000000000000000F3
S31508000E90350018012100000000000000FDFF2102B6
S31508000EA02000000002000000FDFF210240000000B3
S31508000EB002000000000021020100000000000000FE
S31508000EC0FDFF2102000000000200000000003001C2
S31508000ED002000000000000000100310202000000CC
S31508000EE029020000020019020000000000000000AC
S31508000EF01000F008030000000000000011002001A7
S31508000F0002000000FF000000FDFF210200000000B3
S31508000F100200000000000000480E0008040000005F
S31508000F20400000000000000001000000780E0008E4
S31508000F30040000004000000000000000030000005C
S31508000F40A80E000801000200800000000000000052
S31508000F5003000000B40E0008020004004000000070
S31508000F600000000000050000CC0E00080600100076
S31508000F704000000000000000636C7573202F20738A
S31508000F80696465202F2061747472202F206D66674E
S31508000F9020202F74797065286C656E292F2072774A
S31508000FA0202F2073746F72616765202F2064617427
S31508000FB061202872617729004F54412052454144E7
S31508000FC03A2065703A2578206369643A2532782094
S31508000FD061747469643A253278206D736B3A2578A2
S31508000FE0206D66636F64653A253278005245414440
S31508000FF03A20636C7573202532782C2061747472DC
S3150800100020253278206661696C65642025780000A1
S31508001010524541443A20636C7573202532782C205A
S3150800102061747472202532782C20646174614C6571
S315080010306E3A2025782C204F4B00000025706570ED
S3150800104020257820636C75732025327820617474A6
S315080010507220253278206E6F7420737570706F72E7
S3150800106074656400524541443A2061747472696239
S315080010707574652073697A6520746F6F206C617268
S31508001080676520666F722063616C6C65720000008C
S31508001090473A5C53696C69636F6E4C6162735C5363
S315080010A0444B735C4765636B6F5F73646B5F763441
S315080010B05F345F355F3235303131345C706C617462
S315080010C0666F726D5C736572766963655C6C65677D
S315080010D06163795F68616C5C7372635C6261736596
S315080010E02D7265706C6163656D656E742E630000A4
S315080010F052583A205265736574546F466163746F2B
S31508001100727944656661756C747343616C6C62616F
S31508001110636B0000706172656E744944205B3078B9
S31508001120253034585D20706172656E745273736928
S31508001130205B25645D0000006E776B205B25645D8F
S315080011402070726F66696C65205B3078253034587C
S315080011505D206465764964205B3078253034585DB7
S3150800116020766572205B307825785D005072696D4F
S31508001170617279202870726F29000000456E6162DD
S315080011806C65206576656E7420646562756720698E
S315080011906E666F20696E20436F726520434C492046
S315080011A0636F6D706F6E656E740000004D6163202D
S315080011B05278204263617374000000004D61632019
S315080011C05478204263617374000000004D61632007
S315080011D05278205563617374000000004D616320E6
S315080011E05478205563617374000000004D616320D4
S315080011F054782055636173742052657472790000BF
S315080012004D61632054782055636173742046616983
S315080012106C00000041505320527820426361737479
S3150800122000000000415053205478204263617374D3
S3150800123000000000415053205278205563617374B2
S3150800124000000000415053205478205563617374A0
S315080012502053756363657373000000004150532083
S31508001260547820556361737420526574727900004E
S315080012704150532054782055636173742046616940
S315080012806C000000526F75746520446973632049C9
S315080012906E69746961746564000000004E6569676B
S315080012A068626F7220416464656400004E65696710
S315080012B068626F722052656D6F7665640000000083
S315080012C04E65696768626F72205374616C650000C9
S315080012D04A6F696E20496E6469636174696F6E004E
S315080012E04368696C64204D6F7665640041534820F5
S315080012F04F766572666C6F77000000004153482090
S315080013004672616D65204572726F720041534820BE
S315080013104F76657272756E204572726F72000000A4
S315080013204E574B204643204661696C75726500002E
S31508001330415053204643204661696C75726500002A
S3150800134041534820584F666600000000415053201C
S31508001350556E617574686F72697A6564204B657934
S31508001360000000004E574B20446563727970742064
S315080013704661696C75726573000000004150532020
S3150800138044656372797074204661696C7572657319
S31508001390000000005061636B6574204275666665DF
S315080013A07220416C6C6F63617465204661696C7567
S315080013B07265730052656C61796564205563617363
S315080013C07400000050687920746F204D41432071E5
S315080013D075657565206C696D6974207265616368E9
S315080013E0656400005061636B65742056616C6964BE
S315080013F06174652064726F7020636F756E74000087
S315080014004E574B207265747279206F766572666CDA
S315080014106F770000434341204661696C75726573B6
S315080014200000000042726F61646361737420746126
S31508001430626C652066756C6C000000005054412093
S315080014404C6F20507269205265710000505441203B
S315080014504869205072692052657100005054412035
S315080014604C6F205072692044656E696564000000FF
S31508001470505441204869205072692044656E696558
S3150800148064000000505441204C6F2050726920546B
S3150800149078204162727400005054412048692050F7
S315080014A07269205478204162727400004164647243
S315080014B065737320436F6E666C6963742053656E3B
S315080014C0740000003F3F3F004941434356494F4C93
S315080014D03A20617474656D7074656420696E7374FE
S315080014E072756374696F6E206665746368206672C8
S315080014F06F6D2061206E6F2D657865637574652044
S3150800150061646472657373004441434356494F4CA2
S315080015103A20617474656D70746564206C6F6164DB
S31508001520206F722073746F726520617420616E205B
S31508001530696C6C6567616C206164647265737300BD
S315080015404D554E53544B4552523A20756E7374613D
S31508001550636B2066726F6D20657863657074696F5A
S315080015606E2072657475726E20636175736564208A
S315080015706163636573732076696F6C6174696F6EF6
S31508001580000000004D53544B4552523A2073746183
S31508001590636B696E672066726F6D20657863657028
S315080015A074696F6E20636175736564206163636532
S315080015B073732076696F6C6174696F6E0000000042
S315080015C04D4D415256414C49443A204D4D415220C9
S315080015D0636F6E7461696E732076616C69642066E8
S315080015E061756C7420616464726573730000000031
S315080015F0494255534552523A20696E73747275635F
S3150800160074696F6E207072656665746368206361BD
S315080016107573656420627573206661756C74000065
S315080016205052454349534552523A20707265636990
S315080016307365206461746120627573206661756CD8
S3150800164074000000494D5052454349534552523A99
S3150800165020696D70726563697365206461746120C1
S31508001660627573206661756C74000000554E53549C
S315080016704B4552523A20756E737461636B696E6797
S31508001680206F6E20657863657074696F6E20726569
S315080016907475726E20636175736564206461746124
S315080016A020627573206661756C74000053544B454F
S315080016B052523A20737461636B696E67206F6E20AD
S315080016C0657863657074696F6E20656E74727920CB
S315080016D06361757365642064617461206275732043
S315080016E06661756C740000004246415256414C4989
S315080016F0443A204246415220636F6E7461696E73A4
S315080017002076616C6964206661756C742061646416
S315080017107265737300000000554E444546494E53A2
S3150800172054523A20747269656420746F206578652E
S315080017306375746520616E20756E646566696E658D
S315080017406420696E737472756374696F6E00000045
S31508001750494E5653544154453A20696E76616C6930
S31508001760642045505352202D20652E672E2C207458
S315080017707269656420746F2073776974636820746E
S315080017806F2041524D206D6F64650000494E5650DA
S31508001790433A20657863657074696F6E2072657464
S315080017A075726E20696E74656772697479206368EC
S315080017B065636B73206661696C6564004E4F4350C0
S315080017C03A20617474656D7074656420746F206561
S315080017D0786563757465206120636F70726F6365E1
S315080017E073736F7220696E737472756374696F6E42
S315080017F000000000554E414C49474E45443A206189
S315080018007474656D7074656420616E20756E616CA4
S3150800181069676E6564206D656D6F727920616363B3
S315080018206573730044495642595A45524F3A2061E6
S315080018307474656D7074656420746F20657865636B
S315080018407574652053444956206F7220554449568D
S3150800185020776974682064697669736F72206F6689
S3150800186020300000534D555F5345435552455F4957
S3150800187052516E00534D555F535F50524956494C6D
S31508001880454745445F4952516E000000534D555F28
S315080018904E535F50524956494C454745445F495255
S315080018A0516E0000454D555F4952516E00000000CB
S315080018B054494D4552305F4952516E0054494D4581
S315080018C052315F4952516E0054494D4552325F4973
S315080018D052516E0054494D4552335F4952516E007C
S315080018E054494D4552345F4952516E005553415241
S315080018F054305F52585F4952516E00005553415259
S3150800190054305F54585F4952516E00004555534153
S315080019105254305F52585F4952516E0045555341F3
S315080019205254305F54585F4952516E0045555341E1
S315080019305254315F52585F4952516E0045555341D2
S315080019405254315F54585F4952516E004D56505F9C
S315080019504952516E00000000494341434845305FF3
S315080019604952516E0000000042555254435F495295
S31508001970516E00004C4554494D4552305F4952510D
S315080019806E0000005359534346475F4952516E0053
S315080019904D5041484252414D5F4952516E00000038
S315080019A04C444D415F4952516E0000004C46584F19
S315080019B05F4952516E0000004C4652434F5F4952F0
S315080019C0516E0000554C4652434F5F4952516E00C6
S315080019D04750494F5F4F44445F4952516E000000DB
S315080019E04750494F5F4556454E5F4952516E000074
S315080019F0493243305F4952516E0000004932433143
S31508001A005F4952516E000000454D5544475F4952A3
S31508001A10516E00004147435F4952516E0000000075
S31508001A20425546435F4952516E0000004652435F95
S31508001A305052495F4952516E000000004652435FBA
S31508001A404952516E000000004D4F44454D5F4952C2
S31508001A50516E000050524F54494D45525F495251FC
S31508001A606E0000005241435F52534D5F4952516E1A
S31508001A70000000005241435F5345515F4952516E81
S31508001A8000000000484F53544D41494C424F585F9F
S31508001A904952516E0000000053594E54485F49524E
S31508001AA0516E000041434D50305F4952516E00005F
S31508001AB041434D50315F4952516E000057444F47DC
S31508001AC0305F4952516E000057444F47315F4952C3
S31508001AD0516E00004846584F305F4952516E00001B
S31508001AE0484652434F305F4952516E00484652436A
S31508001AF04F454D32335F4952516E0000434D555F95
S31508001B004952516E000000004145535F4952516EDB
S31508001B1000000000494144435F4952516E000000ED
S31508001B204D53435F4952516E0000000044504C4CDF
S31508001B30305F4952516E0000454D554546505F4944
S31508001B4052516E00444344435F4952516E000000AF
S31508001B5050434E54305F4952516E00005357305F20
S31508001B604952516E000000005357315F4952516E79
S31508001B70000000005357325F4952516E00000000C2
S31508001B805357335F4952516E000000004B45524E81
S31508001B90454C305F4952516E000000004B45524E8D
S31508001BA0454C315F4952516E00000000465055457C
S31508001BB058485F4952516E00534554414D5045525D
S31508001BC0484F53545F4952516E00000053454D42E9
S31508001BD052585F4952516E0053454D4254585F4919
S31508001BE052516E005359535254435F4150505F4906
S31508001BF052516E005359535254435F5345515F49EE
S31508001C0052516E004B45595343414E5F4952516EEE
S31508001C10000000005246454341305F4952516E006C
S31508001C205246454341315F4952516E00564441433D
S31508001C30305F4952516E000056444143315F495264
S31508001C40516E000041484232414842305F49525184
S31508001C506E00000041484232414842315F495251C4
S31508001C606E000000C814000808150008E34E0408B2
S31508001C704015000884150008E34E0408E34E0408DE
S31508001C80C0150008F01500082016000844160008BC
S31508001C906C160008AC160008E34E0408E34E040868
S31508001CA0E816000818170008501700088C170008CF
S31508001CB0BC170008E34E0408E34E0408E34E040884
S31508001CC0E34E0408F41700082418000852657365E3
S31508001CD0742063617573653A205761746368646F2D
S31508001CE06720657870697265642C206E6F2072654E
S31508001CF06C6961626C6520657874726120696E66CC
S31508001D006F726D6174696F6E0A00000052657365C3
S31508001D10742063617573653A205761746368646FEC
S31508001D206720636175676874207769746820656ED3
S31508001D3068616E63656420696E666F0A000000005C
S31508001D40484653522E5645435454424C3A206572DF
S31508001D50726F722072656164696E67207665637456
S31508001D606F72207461626C6520666F7220616E20E6
S31508001D70657863657074696F6E0A00004846535249
S31508001D802E464F524345443A20636F6E666967751F
S31508001D907261626C65206661756C7420636F756C20
S31508001DA064206E6F742061637469766174650A00D5
S31508001DB0484653522E44454255474556543A20669E
S31508001DC061756C742072656C6174656420746F202B
S31508001DD06465627567202D20652E672E2C20657830
S31508001DE065637574656420424B50540A0000000010
S31508001DF052657365742063617573653A204D656D28
S31508001E006F7279204D616E6167656D656E742046E7
S31508001E1061756C740A00000041646472657373200E
S31508001E206973206F6620616E20696E7374727563BC
S31508001E3074696F6E206166746572206275732066B8
S31508001E4061756C74206F636375727265642C206E9D
S31508001E506F74207468652063617573652E0A0000C7
S31508001E60434653522E286E6F6E6529206C6F616447
S31508001E70206F722073746F726520617420616E2002
S31508001E80696C6C6567616C20616464726573730A5A
S31508001E900000000052657365742063617573653AC6
S31508001EA0204465627567204D6F6E69746F722046AF
S31508001EB061756C740A00000064180008741800083C
S31508001EC08C180008A4180008B0180008BC180008E8
S31508001ED0C8180008D4180008E0180008EC1800080C
S31508001EE0FC1800080C1900081C1900082C19000811
S31508001EF03C1900084C190008581900086819000808
S31508001F00741900088419000890190008A019000817
S31508001F10AC190008B8190008C4190008D019000837
S31508001F20E0190008F0190008FC190008081A00084A
S31508001F30141A0008201A00082C1A00083C1A00086F
S31508001F40481A0008541A0008641A0008741A000887
S31508001F50841A0008981A0008A41A0008B01A00087B
S31508001F60BC1A0008C81A0008D41A0008E01A0008A3
S31508001F70EC1A0008FC1A0008081B0008141B0008C5
S31508001F80201B00082C1B0008381B0008441B0008EF
S31508001F90501B00085C1B0008681B0008741B00081F
S31508001FA0801B00088C1B00089C1B0008AC1B000843
S31508001FB0B81B0008CC1B0008D81B0008E41B000847
S31508001FC0F41B0008041C0008141C0008201C000848
S31508001FD02C1C0008381C0008441C0008541C000867
S31508001FE02573206D6F6465207573696E6720257388
S31508001FF020737461636B202825346C7820746F20F5
S3150800200025346C78292C205350203D2025346C78B3
S315080020100A0000002575206279746573207573655A
S31508002020642028257525252920696E2025732073A7
S315080020307461636B20286F7574206F662025752080
S31508002040627974657320746F74616C290A000000E4
S31508002050496E7465727275707473206163746976FB
S315080020606520286F72207072652D656D70746564C1
S3150800207020616E6420737461636B6564293A0A0093
S31508002080523000523100523200523300523400525C
S315080020903500523600523700523800523900523154
S315080020A030005231310052313200523133284C520D
S315080020B029004D5350005053500050430078505358
S315080020C052004D5350207573656400505350207567
S315080020D07365640043535441434B20626F74746FB5
S315080020E06D004943535200534843535200494E54D6
S315080020F05F4143544956453000494E545F41435465
S315080021004956453100434653520048465352004407
S31508002110465352004D4D41522F42464152004146C8
S31508002120535200526574300052657431005265741A
S315080021303200526574330052657434005265743542
S31508002140004461743000446174310000554E4B0000
S315080021504649420042544C004558540050575200D4
S3150800216057444700205357004352530046534800EC
S3150800217042414400464C540042524F00554E4B00D3
S31508002180474F200042544C00474F3200474F330018
S31508002190474F3400474F3500474F3600474F370003
S315080021A0474F3800474F3900474F4100474F4200D5
S315080021B0474F4300474F4400474F4500474F4600A7
S315080021C04A4D5000424452005550520042544D0068
S315080021D04D534D0046544C00554E4B00474F20007A
S315080021E042544C004241440046544C004652430077
S315080021F04F54410044534C00554E4B0050494E0035
S31508002200454D3400554E4B0048562000554E4B0060
S31508002210455850004C574D00554E4B0052425400FD
S3150800222044534C00454D3400554E4B004153540021
S31508002230554E4B0056465900494E4800554E4B00E0
S315080022404C434B0058544C004F424600554E4B00E9
S31508002250485244004D454D004255530055534700DA
S3150800226044424700444D410056435400554E4B00E6
S315080022705550200052502000415030004150310046
S315080022804150200044502000444543007C2100086A
S3150800229080210008D8210008F82100080422000837
S315080022A00C220008182200082822000830220008FC
S315080022B03C2200084C2200086C2200086009000035
S315080022C00400E40C0A00000046696E6420616E642E
S315080022D02042696E6420496E69746961746F723A46
S315080022E020436F6D706C6574653A20307825580008
S315080022F05374616E646172642043494500000000AE
S315080023004D6F74696F6E2053656E736F72000000AF
S31508002310436F6E7461637420537769746368000051
S31508002320466972652053656E736F720057617465EE
S31508002330722053656E736F72000000004761732048
S3150800234053656E736F72000050656572736F6E61C8
S315080023506C20456D657267656E637920446576699C
S3150800236063650000566962726174696F6E202F207A
S315080023704D6F76656D656E742053656E736F72006A
S3150800238052656D6F746520436F6E74726F6C0000D2
S315080023904B657920466F62004B6579706164000071
S315080023A05374616E64617264205761726E696E67F8
S315080023B02044657669636500436F6D6D616E6420C0
S315080023C06572726F722120494153205A6F6E6520DB
S315080023D053657276657220737461747573207175AE
S315080023E0657565206973206E6F7420656E61626C11
S315080023F06564000053656E7420656E726F6C6C20A0
S315080024007265717565737420746F20494153205A3B
S315080024106F6E6520636C69656E742E004572726F07
S31508002420722073656E64696E6720656E726F6C6C78
S3150800243020726571756573743A20307825780A00BC
S31508002440496E76616C696420494153205A6F6E65FE
S315080024502053657276657220456E726F6C6C6D6579
S315080024606E74204D6F64653A2025640049415320F7
S315080024705A6F6E652053657276657220456E726F67
S315080024806C6C6D656E74204D6F64653A202564002A
S31508002490494153205A6F6E652053657276657220DE
S315080024A053746174653A202570456E726F6C6C655D
S315080024B0640000004552524F523A20494153205A6F
S315080024C06F6E652053657276657220756E61626CF3
S315080024D06520746F2072656164207A6F6E65204985
S315080024E04420617474726962757465004661696C2A
S315080024F0656420746F2073656E6420494153205AC1
S315080025006F6E65207570646174652E204572722041
S3150800251030782578000000005741524E494E473A18
S31508002520204154545249425554455320415245205E
S315080025304E4F54204245494E472053544F52454426
S3150800254020494E20464C41534821200044455649CF
S3150800255043452057494C4C204E4F542046554E4330
S3150800256054494F4E2050524F5045524C59204146DF
S31508002570544552205245424F4F54494E4721210057
S31508002580456E64706F696E7420307825782069739B
S31508002590206964656E74696679696E673A20257084
S315080025A0000000004964656E746966793A206661C0
S315080025B0696C656420746F2073656E6420257320CA
S315080025C0726573706F6E73653A20307825780000EF
S315080025D05A69676265652050726F000042696E64C9
S315080025E0696E6700536563757269747920436F7203
S315080025F0650000005365637572697479204C696ECD
S315080026006B204B657973000043424B4520313633C6
S315080026104B31000043424B452044534120536967E0
S315080026206E0000004543430043424B452044534156
S3150800263020566572696679005061636B6574205629
S31508002640616C696461746500496E7374616C6C20B1
S31508002650436F6465000000005A4C4C0043424B45EA
S31508002660203238334B310000454343203238334B50
S315080026703100000043424B4520636F72650000003D
S315080026804E4350004D756C7469206E6574776F7291
S315080026906B000000456E68616E6365642042656183
S315080026A0636F6E205265710043424B4520323833C2
S315080026B04B31204453412056657269667900000003
S315080026C04D756C74692D50414E0000004572726F4D
S315080026D0722072657472696576696E6720696E66BE
S315080026E06F20666F72206C69627261727920494444
S315080026F0202564004669727374207061636B657483
S315080027003A206C71692025642C2072737369202520
S31508002710642C206C656E2025640000004572726F7B
S31508002720723A204C656E6774682063616E6E6F74CA
S3150800273020626520626967676572207468616E2029
S31508002740256400004572726F723A204E756D626597
S3150800275072206F66207061636B6574732063616EA7
S315080027606E6F7420626520302E0000004572726F0D
S31508002770723A204D696E696D756D206C656E677469
S31508002780682069732025642062797465732E0000B9
S315080027904572726F723A204D6178696D756D206C5D
S315080027A0656E67746820697320256420627974658C
S315080027B0732E000025702073657420706F7765721C
S315080027C020616E64206D6F64652C20737461747566
S315080027D073203078255800004572726F723A2025AA
S315080027E070206E6F206C6F6E6765722073757070DF
S315080027F06F72747320666F7263656420736C6565A7
S31508002800700000007375636365737366756C6C7925
S315080028102073657420746865206368696C64207425
S31508002820696D656F7574206F7074696F6E206D6160
S31508002830736B2E006661696C656420746F2073651E
S315080028407420746865206368696C642074696D65B2
S315080028506F7574206F7074696F6E206D61736B2E5F
S3150800286000000000496E76616C6964206D61736BC7
S3150800287020666F72206368616E6E656C2070616792
S3150800288065202564000000004E776B20666F756E24
S31508002890642C2063682025642C2070616E496420AE
S315080028A030782532582C206A6F696E696E67000089
S315080028B025732C206E6F207375697461626C6520B0
S315080028C07072696D617279206368616E6E656C20DD
S315080028D0666F756E642E00005363616E6E696E676F
S315080028E020616761696E2C207573696E6720616C5B
S315080028F06C206368616E6E656C732E008122040815
S315080029008B2204088F220408B12204080F23040826
S31508002910B3220408E72204082C000000454D505451
S3150800292059000000554E4943410000004D324F4EB4
S31508002930450000004D554C54490000003F2020201A
S3150800294020000000232020747970652020206E77EF
S315080029506B20206C6F6320202072656D2020206319
S315080029606C75732020206E6F64652020206575695C
S315080029700000000020202564202020203078253003
S3150800298034582020307825303458202030782530A7
S31508002990345820307825303458200000546869733C
S315080029A020636F6D6D616E64206F6E6C7920737530
S315080029B070706F72747320746865205A33206F7252
S315080029C0205345206170706C69636174696F6E206D
S315080029D070726F66696C652E00000000C800AEFE56
S315080029E0B400E8087F8DFBFF4E0002036349FFFF32
S315080029F02C00AF01EFE5FFFF1B00FF00E61A000001
S31508002A001100A700DA2800000A0062001528000055
S31508002A1006003B00A821000003000B00A10E0000E1
S31508002A2006FF6CFFA1FFBCFFCDFFD8FFE0FFE6FF66
S31508002A30EAFFEEFFF0FFF3FFF4FFF6FFF7FFF7FFFD
S31508002A40000800B4DC2900080100000F202A00084D
S31508002A5000000000000000002570642C2064726FDE
S31508002A607070696E67206570203078257820636CF1
S31508002A70757320307825327820636D642030782588
S31508002A8078000000446973636F76657220436F6D42
S31508002A906D616E647320726573706F6E736520283E
S31508002AA0636F6D706C6574653A202563292C202543
S31508002AB073204944733A2000000003020000000016
S31508002AC000000000BA040000000000000000030235
S31508002AD00000000000000000BA040000000000002A
S31508002AE05B42545D2047657420626174746572792F
S31508002AF020566F6C74616765203C20323030302078
S31508002B002C20747279200D0A000000005B42545F85
S31508002B10494E49545D2042545F494E49542825641C
S31508002B2029206261747465727920566F6C746167C6
S31508002B3065203D202564206D76200D0A00000000E2
S31508002B405B42545F4E4F524D414C5D2047657420A1
S31508002B506261747465727920566F6C74616765205A
S31508002B603D202564206D76200D0A00005B42545FE7
S31508002B70434845434B5F4C4F4241545D204F766571
S31508002B807220332054696D65203C20322E3656203B
S31508002B902D3E20566F6C74616765203D20256420A4
S31508002BA06D76200D0A0000005B42545F434845439A
S31508002BB04B5F4C4F4241545D2025642054696D6536
S31508002BC0203C20322E3656202D3E20566F6C7461DE
S31508002BD06765203D202564206D76200D0A000000DB
S31508002BE05B42545F434845434B5F4C4F4241545DFB
S31508002BF0206261636B20746F20322E3656202D3E7C
S31508002C0020566F6C74616765203D202564206D76BB
S31508002C10200D0A005B42545F4C4F4241545D2047E9
S31508002C206574206261747465727920566F6C74617C
S31508002C306765203D202564206D76200D0A0000007A
S31508002C4047657420436861726765537461746500EB
S31508002C505475726E2044656275672046696C7465A2
S31508002C607220204D61736B206F6E20434C49000023
S31508002C70303A2052656164202C31203A57726974C3
S31508002C80651F42697420303A204150505F4C4F47C7
S31508002C905F4C4556454C5F435249544943414C2C79
S31508002CA00A42697420313A204150505F4C4F475FC1
S31508002CB04C4556454C5F4552524F522C0A42697450
S31508002CC020323A204150505F4C4F475F4C4556459D
S31508002CD04C5F5741524E494E472C0A42697420337D
S31508002CE03A204150505F4C4F475F4C4556454C5F24
S31508002CF0494E464F2C0A42697420343A20415050B6
S31508002D005F4C4F475F4C4556454C5F4445425547D7
S31508002D101F0000004254204F4E204F46462054497B
S31508002D204E4520496E74657276616C285345432971
S31508002D3000000000303A2052656164202C31203AA8
S31508002D4057726974651F4F4E2054494D45202F20F0
S31508002D504F46462054494D451F000000636861727E
S31508002D60676553746174650066696C7465724D6154
S31508002D70736B0000425454696D6500005B434C490F
S31508002D805D2046696C7465724D61736B203A20301C
S31508002D907825782063757272656E746D61736B3A07
S31508002DA02030782578200A005B434C495D207374EF
S31508002DB061747573203D30782578202C20637572F0
S31508002DC072656E746D61736B3A2030782578200AC7
S31508002DD0000000005B434C495D2053455420534591
S31508002DE0434F4D5F434845434B5F42545F44434F0F
S31508002DF04E5F54494D45203D202025642073656368
S31508002E00202C205345434F4D5F434845434B5F4273
S31508002E10545F44434F46465F54494D45203D202064
S31508002E20256420736563200A000000005B434C4953
S31508002E305D20474554205345434F4D5F434845431E
S31508002E404B5F42545F44434F4E5F54494D45203DC6
S31508002E502020256420736563202C205345434F4D5D
S31508002E605F434845434B5F42545F44434F46465F82
S31508002E7054494D45203D2020256420736563200A6A
S31508002E800000000051230408402C0008E94E0408FD
S31508002E90FF000000A3230408502C0008702C00082B
S31508002EA00000FF0029240408142D0008342D00080A
S31508002EB0000101FF5C2D0008842E000800000000B8
S31508002EC0682D0008942E000800000000742D0008E4
S31508002ED0A42E00080000000000000000000000000A
S31508002EE0000000005B466163746F72795D20457867
S31508002EF0697420466163746F727920436E74203D4D
S31508002F00202564200D0A00005B466163746F7279A0
S31508002F105D20476574206261747465727920566F06
S31508002F206C74616765203D202564206D76200D0A46
S31508002F30000000005B466163746F72795D20476527
S31508002F4074206261747465727920566F6C74616757
S31508002F5065203D202564206D76202D2D2D2D4C6F66
S31508002F6077426174746572790D0A00005B5A434CA6
S31508002F705D204572726F723A20434C492053656E44
S31508002F8064206661696C65642C207374617475735A
S31508002F903A2030782558200D0A0000005B5A434C29
S31508002FA05D204552523A2072656164696E672061F8
S31508002FB07474726962757465202578200D0A00009C
S31508002FC05B5A434C5D204552523A206174747269CB
S31508002FD0627574652073697A6520256420746F6F3D
S31508002FE0206C6172676520666F7220627566666519
S31508002FF0720D0A00496E64657820494545452041A9
S315080030006464726573732020202020202020204EBF
S31508003010574B496E6465782020496E204643202028
S3150800302020202054544C28732920466C61672020A0
S3150800303020204B657920202020000000496E646519
S31508003040782049454545204164647265737320209C
S3150800305020202020202020496E20464320202020A2
S31508003060205479706520204175746820204B657955
S31508003070000000005741524E494E473A202052451B
S315080030804144494E47204F46204B45592056414C0E
S315080030905545532044495341424C45442042592002
S315080030A04D464720544F4B454E0000002564206589
S315080030B06E7472257320636F6E73756D696E672003
S315080030C02564207061636B65742062756666657237
S315080030D025732E0054727573742043656E74657279
S315080030E020257020616C6C6F77207472757374205C
S315080030F063656E7465722072656A6F696E73207592
S3150800310073696E672077656C6C2D6B6E6F776E20B2
S315080031106B65792E000000005365742074696D652F
S315080031206F757420666F72205472757374204365C8
S315080031306E7465722072656A6F696E73207573693D
S315080031406E672077656C6C2D6B6E6F776E206C6979
S315080031506E6B206B657920746F2025642073656318
S315080031606F6E64732E0000004572726F723A2046C5
S3150800317061696C656420746F2067657420636F6E7F
S315080031806669672C207374617475733A20307825E4
S315080031903032580025705365727669636520446934
S315080031A073636F76657279205374617465206C69F0
S315080031B06D69747320726561636865640A0000004E
S315080031C02570496C6C6567616C2062726F61646317
S315080031D061737420616464726573732C2072656D03
S315080031E0617070696E6720746F2076616C696420FF
S315080031F06F6E652E0000000025704661696C656477
S3150800320020746F2073656E64206D61746368206432
S315080032106973636F766572793A203078257800008D
S3150800322025705374617274696E6720646973636F7D
S315080032307665727920666F7220636C757374657231
S31508003240203078253278000025704661696C6564FF
S3150800325020746F2073656E642061637469766520D7
S31508003260656E64706F696E742072657175657374C6
S315080032703A2030782578000025704661696C6564C7
S3150800328020746F2073656E642073696D706C652099
S3150800329064657363726970746F722072657175659F
S315080032A073743A203078257800000000257046614E
S315080032B0696C656420746F2073656E6420494545A2
S315080032C045206164647265737320726571756573F0
S315080032D0743A20307825780025704661696C6564F3
S315080032E020746F2073656E64204E574B20616464AA
S315080032F07265737320726571756573743A203078D8
S3150800330025780000257057616974696E6720256401
S315080033102073656320666F7220646973636F7665D0
S31508003320727920746F20636F6D706C657465000028
S31508003330537461746520636F72726573706F6E641F
S31508003340696E6720746F20746865207468652072DA
S31508003350657175657374206E6F7420666F756E641B
S315080033600A00000025704D65737361676520746FE8
S315080033706F2073686F727420666F72206E756D2E7B
S3150800338020656E64706F696E747300004572726FA3
S31508003390723A202570206261642073696D706C65CD
S315080033A02064657363726970746F72206C656E67EA
S315080033B074682E004572726F723A20257020696E05
S315080033C076616C6964206C656E677468202825646C
S315080033D020213D2025642920666F72204163746987
S315080033E0766520456E64706F696E742072657370B9
S315080033F06F6E73650000000054686520617267751A
S315080034006D656E74206973206E6F7420666F726DB9
S31508003410617474656420636F72726563746C790095
S315080034204D6178696D756D206E756D626572206F78
S315080034306620617267756D656E747320657863655D
S315080034406564656400000000446973706C617920E6
S3150800345074686520736C6565702073746174757320
S3150800346000000000536574206F7220636C656172FA
S3150800347020666F726365206177616B6500000000E6
S31508003480536574206F7220636C6561722073746172
S3150800349079206177616B65207768656E206E6F7439
S315080034A0206A6F696E6564005072696E747320696C
S315080034B06E666F726D6174696F6E2061626F757486
S315080034C020746865206E6574776F726B20737461FB
S315080034D074652C20636C7573746572732C20616E29
S315080034E06420656E64706F696E74732E0000000048
S315080034F04C69737473207768696368206F707469A0
S315080035006F6E616C206C6962726172696573206F97
S31508003510662074686520737461636B206172652028
S31508003520696D706C656D656E746564206F6E207468
S31508003530686973206465766963652E0053656E64F1
S31508003540732061206D6573736167652E0000000046
S31508003550536F7572636520656E64706F696E741F4C
S315080035600000000044657374696E6174696F6E1FAC
S31508003570536F7572636520656E64706F696E741F2C
S3150800358044657374696E6174696F6E20656E6470E4
S315080035906F696E741F0000005265616473206120B4
S315080035A06D6573736167652E00000000456E647073
S315080035B06F696E741F436C75737465722049441F76
S315080035C04174747269627574652049441F312069B3
S315080035D066207365727665722064697265637469BC
S315080035E06F6E2C203020696620636C69656E7420C6
S315080035F0646972656374696F6E1F00005772697437
S3150800360065732061206D6573736167652E00000020
S31508003610456E64706F696E741F436C75737465725A
S315080036202049441F4174747269627574652049445F
S315080036301F4D61736B1F4461746120747970651F37
S315080036404461746120627974651F00005265736570
S31508003650747320746865206E6F64652E0000000020
S31508003660437265617465732061206D657373616764
S31508003670652062792073706563696679696E67206B
S31508003680746865207261772062797465732E205597
S315080036907365207468652073656E6420636F6D6D4D
S315080036A0616E6420746F2073656E6420746865208B
S315080036B06D657373616765206F6E63652069742035
S315080036C0686173206265656E2063726561746564FE
S315080036D02E2045783A20726177203078303030468F
S315080036E0207B3030203041203030203131203232BA
S315080036F02033332034342035357D2073656E64736A
S315080037002061206D65737361676520746F20636C33
S31508003710757374657220313520283078303030461C
S3150800372029206F66206C656E677468203820776874
S3150800373069636820696E636C75646573207468656F
S31508003740205A434C206865616465722E00000000AB
S31508003750436C757374657249641F446174611F0014
S3150800376053656E64732061207072652D6275666696
S3150800377065726564206D756C746963617374206D18
S3150800378065737361676520746F2061206769766564
S315080037906E2067726F75702049442066726F6D20BF
S315080037A06120676976656E20656E64706F696E74F0
S315080037B02E00000067726F757049641F7372632D5F
S315080037C0656E64706F696E741F0000005768656ED9
S315080037D02073656E64696E67207573696E6720610C
S315080037E02062696E64696E672C207370656369660A
S315080037F069657320776865746865722061206D75E0
S315080038006C7469636173742062696E64696E67209B
S3150800381073686F756C6420626520757365642E0025
S315080038207573654D756C74696361737442696E640A
S31508003830696E671F0000000053656E64732061207F
S3150800384072656164206174747220666F7220746890
S31508003850652074696D65206F6620746865206465E7
S3150800386076696365207370656369666965642E2089
S3150800387049742073657473206120666C61672073D0
S315080038806F207768656E2069742067657473207485
S31508003890686520726573706F6E736520697420772A
S315080038A07269746573207468652074696D6520741F
S315080038B06F20697473206F776E2074696D65206157
S315080038C07474722E0000000049641F737263456E9B
S315080038D064706F696E741F64657374456E64706F87
S315080038E0696E741F0000000052657475726E73204D
S315080038F050544920726164696F20636F6E66696708
S3150800390020696E666F726D6174696F6E20746F20C0
S3150800391064657465726D696E6520746865205048C3
S31508003920592074797065206265696E6720757365BC
S3150800393064206279205241494C2E20726574757252
S315080039406E2076616C756520697320656E756D20CD
S315080039505241494C5F494545453830323135345F27
S31508003960507469526164696F436F6E6669675F7404
S3150800397020652E6720205241494C5F494545453808
S3150800398030323135345F5054495F524144494F5FB4
S31508003990434F4E4649475F32503447485A203D20E8
S315080039A03078303055205241494C5F4945454538B5
S315080039B030323135345F5054495F524144494F5F84
S315080039C0434F4E4649475F32503447485A5F414E47
S315080039D054444956203D20307830315520524149CB
S315080039E04C5F494545453830323135345F50544986
S315080039F05F524144494F5F434F4E4649475F3250F5
S31508003A003447485A5F434F4558203D203078303276
S31508003A1055205241494C5F49454545383032313584
S31508003A20345F5054495F524144494F5F434F4E46B5
S31508003A3049475F32503447485A5F414E54444956C5
S31508003A405F434F4558203D203078303355000000FD
S31508003A505365742074686520636F6E66696775724E
S31508003A606564203830322E31352E342043434120C8
S31508003A706D6F646520696E2074686520726164697B
S31508003A806F2E2053656520646F63756D656E74616E
S31508003A9074696F6E20726567617264696E67205219
S31508003AA041494C5F494545453830323135345F43E5
S31508003AB063614D6F64655F742E00000041205241BA
S31508003AC0494C5F494545453830323135345F4363A3
S31508003AD0614D6F64655F742076616C75651F0000C3
S31508003AE053686F7773207468652076657273696F9B
S31508003AF06E206F662074686520736F6674776172CE
S31508003B00652E00005072696E742073746174757343
S31508003B10206F6620656E64706F696E74732E000080
S31508003B20456E61626C65732074686520656E6470A5
S31508003B306F696E7420666F72205A434C206D6573E8
S31508003B4073616765732E0000456E64706F696E74E5
S31508003B5020696E6465781F0044697361626C65202C
S31508003B6074686520656E64706F696E7420666F721E
S31508003B70205A434C206D657373616765732E000088
S31508003B805072696E7420616374697665206576651E
S31508003B906E74732E000000005072696E74204D46D4
S31508003BA04720746F6B656E2E000000005365742005
S31508003BB04D464720746F6B656E2C2043414E4E4F21
S31508003BC05420424520554E53455420425920434CD3
S31508003BD0492E00005072696E747320616C6C206304
S31508003BE06F756E7465722076616C75657320616E8B
S31508003BF06420636C65617273207468656D2E0000BD
S31508003C005072696E7473207468652076616C756588
S31508003C10206F6620746869732070617274696375B1
S31508003C206C617220636F756E7465722E00000000F9
S31508003C3054686520636F756E746572207479706553
S31508003C4020746F207072696E741F00005072696E5E
S31508003C50747320616C6C20636F756E746572207660
S31508003C60616C7565732E0000436C65617273206123
S31508003C706C6C20636F756E7465722076616C756501
S31508003C80732E00005072696E747320746865207410
S31508003C9068726573686F6C6473206F6620616C6CFC
S31508003CA02074686520636F756E746572732E0000E4
S31508003CB0536574732061207468726573686F6C64E9
S31508003CC02076616C756520666F722061207061725E
S31508003CD0746963756C61722074797065206F6620EB
S31508003CE0636F756E7465722E0000000054797065F6
S31508003CF0206F6620636F756E7465721F54687265EF
S31508003D0073686F6C642056616C75651F000000004F
S31508003D1052657365747320616C6C20746872657380
S31508003D20686F6C64732076616C75657320746F2098
S31508003D303078464646462E0053656E6473206120E9
S31508003D407265717565737420666F72204F544120D1
S31508003D50636F756E746572732E000000456E61623E
S31508003D606C652F64697361626C652064656275674A
S31508003D702060737461636B60207072696E7420745E
S31508003D807970652E00000000456E61626C652F64CF
S31508003D90697361626C651F00456E61626C652F64AC
S31508003DA0697361626C652064656275672060636F1C
S31508003DB0726560207072696E7420747970652E0061
S31508003DC0456E61626C652F64697361626C65206417
S31508003DD065627567206061707060207072696E74C4
S31508003DE020747970652E0000456E61626C652F64DB
S31508003DF0697361626C6520646562756720607A63C1
S31508003E006C60207072696E7420747970652E00007B
S31508003E10456E61626C652F64697361626C652064C6
S31508003E206562756720606C6567616379206170708B
S31508003E30206672616D65776F726B2064656275675F
S31508003E4060207072696E7420747970652E000000A7
S31508003E504D616B65732074686973206E6F646520A5
S31508003E6073746172742074686520696E6974696117
S31508003E70746F722070617274206F66207468652092
S31508003E8066696E64696E6720616E642062696E6435
S31508003E90696E672070726F636573732E0000000089
S31508003EA054686520656E64706F696E74206F6E2045
S31508003EB0776869636820746F20626567696E207425
S31508003EC068652046696E64696E6720616E64204283
S31508003ED0696E64696E6720696E69746961746F7268
S31508003EE02070726F636573731F0000005072696EED
S31508003EF07473207468652063757272656E742076B3
S31508003F00616C7565206F662074686520666F6C6CD9
S31508003F106F77696E6720636C757374657220617458
S31508003F207472696275746573202D207A6F6E6520C8
S31508003F30747970652C207A6F6E6520737461746568
S31508003F402C207A6F6E65207374617475732C207AD1
S31508003F506F6E652049442E0054686520656E64704E
S31508003F606F696E742077686F736520494153205ACC
S31508003F706F6E6520436C757374657220696E666F23
S31508003F80726D6174696F6E20697320746F20626543
S31508003F90207072696E7465641F0000005570646154
S31508003FA074657320746865207A6F6E652073746112
S31508003FB074757320617474726962757465206F66AE
S31508003FC0206120676976656E20656E64706F696E1C
S31508003FD0747320494153205A6F6E6520636C75735C
S31508003FE074657220746F2074686520676976656EDB
S31508003FF02076616C75652E00546865206E6577209D
S3150800400073746174757320746F20626520777269A2
S315080040107474656E1F54686520616D6F756E7420C3
S315080040206F662074696D652073696E6365207468B0
S3150800403065206C61737420757064617465206F63A4
S3150800404063757272656420287365636F6E6473297D
S315080040501F54686520656E64706F696E7420776892
S315080040606F7365207A6F6E6520737461747573203B
S3150800407061747472696275746520697320746F203F
S31508004080626520757064617465641F0055706461AB
S315080040907465732074686520494153205A6F6E65AC
S315080040A0207365727665727320656E726F6C6C6DBF
S315080040B0656E74206D6574686F6420746F2074680B
S315080040C065207370656369666965642076616C75D9
S315080040D0652E000054686520656E64706F696E749D
S315080040E02077686F736520656E726F6C6C6D656E90
S315080040F074206D6F646520697320746F2062652073
S31508004100757064617465641F546865206E657720F0
S31508004110656E726F6C6C6D656E74206D6F64651F6D
S31508004120000000005570646174657320746865202A
S31508004130494153205A6F6E652073657276657273AE
S31508004140206261636B6F666620636F6E666967756A
S31508004150726174696F6E20706172616D65746572E3
S31508004160732E00004669727374206261636B6F6612
S31508004170662074696D6520696E207365636F6E6469
S31508004180731F4261636B6F666620696E6372656151
S31508004190736520636F6D6D6F6E20726174696F1F32
S315080041A04D6178696D756D206261636B6F66662017
S315080041B074696D6520696E207365636F6E64731F1D
S315080041C0556E6C696D69746564207265746972658B
S315080041D0731F4D6178696D756D20726574727920EB
S315080041E0617474656D7074731F0000005072696E97
S315080041F0747320696E666F726D6174696F6E206F75
S315080042006E207468652073746174757320717565A2
S3150800421075652E005072696E747320746865207314
S31508004220746174757320717565756520636F6E6644
S3150800423069672E005072696E742077686963682012
S31508004240656E64706F696E7473206172652072653D
S31508004250706F7274696E672E000000005374617285
S315080042607420746865206D66676C6962207465736E
S3150800427074206D6F64652E0055736520746865201B
S3150800428052782063616C6C6261636B2E1F000000BC
S3150800429053746F7020746865206D66676C69622058
S315080042A074657374206D6F64652E000053746172B3
S315080042B07473206120746F6E6520746573742E00A4
S315080042C053746F70732074686520746F6E652074FC
S315080042D06573742E000000005072696E7473207442
S315080042E068652063757272656E742073746174757F
S315080042F073206F6620746865206D616E75666163EC
S31508004300747572696E67206C6962726172792E00C3
S315080043105365747320746865206368616E6E656C96
S31508004320207573656420627920746865206D616EF6
S3150800433075666163747572696E67206C696272610D
S31508004340727920666F722074657374696E672E00C1
S31508004350546865203830322E31352E342063686132
S315080043606E6E656C206E756D6265722E1F0000009C
S315080043705365742074686520706F776572206C6564
S3150800438076656C20616E64206D6F646520666F7259
S3150800439020746865206D616E7566616374757269EF
S315080043A06E6720746573742E0000000054686520DB
S315080043B0706F776572206C6576656C1F546865202A
S315080043C0706F776572206D6F64651F005374617234
S315080043D074207468652073747265616D20746573E2
S315080043E0742E000053746F7020746865207374729D
S315080043F065616D20746573742E00000053656E64E4
S31508004400206120736572696573206F662074657311
S3150800441074207061636B65747320776974682072A1
S31508004420616E646F6D20646174612E2E0000000059
S31508004430546865206E756D626572206F66207061BE
S31508004440636B65747320746F2073656E642E1F54D6
S315080044506865206C656E677468206F662074686589
S31508004460207061636B657420746F2073656E642EAB
S315080044701F00000053656E642061207365726965CC
S3150800448073206F662074657374207061636B65743E
S315080044907320776974682066697865642064617436
S315080044A0612E000053656E64206120746573742064
S315080044B06D657373616765207769746820746865CC
S315080044C02073706563696669656420646174612038
S315080044D0696E2069742E0000546865206865782026
S315080044E06461746120746F2073656E642C20757026
S315080044F020746F2031362062797465732E1F5468D4
S3150800450065206E756D626572206F66207061636BDB
S3150800451065747320746F2073656E642E1F00000027
S31508004520536C6565702E0000536C65657020647564
S31508004530726174696F6E20286D53292E1F00000062
S3150800454050726F6772616D204555492E0000000054
S3150800455049454545206164647265737320746F200C
S3150800456070726F6772616D2E1F000000456E616282
S315080045706C65206D66676C69622E000031203D20EF
S31508004580656E61626C652C2030203D20646973611C
S31508004590626C652E1F00000053657473206F70747B
S315080045A0696F6E7320696E20746865206D616E751B
S315080045B0666163747572696E67206C69627261728E
S315080045C07920666F722074657374696E672E0000B1
S315080045D0546865206F7074696F6E73206269746DB4
S315080045E061736B202830203D206E6F726D616C20E0
S315080045F07472616E736D69742C2031203D204353AB
S315080046004D41207472616E736D6974292E1F000006
S3150800461053657473206374756E65207669612074BA
S315080046206865206D616E75666163747572696E671B
S31508004630206C6962726172792E00000054686520E8
S315080046406374756E652076616C7565206973206282
S3150800465065747765656E20307830303030202D20CF
S315080046603078303146462E1F0000000047657473C7
S31508004670206374756E652076696120746865206D9F
S31508004680616E75666163747572696E67206C6962BE
S31508004690726172792E00000053657473206120637D
S315080046A068616E6E656C206D61736B20666F722033
S315080046B06120676976656E206368616E6E656C2039
S315080046C07061676520666F722066696E64206A6F1E
S315080046D0696E61626C6520616E642066696E64202D
S315080046E0756E757365642E004368616E6E656C2021
S315080046F07061676520283020616E642032382D335A
S31508004700312C206966207375622D47487A207375A7
S3150800471070706F727420697320696E636C75646556
S3150800472064291F4368616E6E656C206D61736B1F2B
S31508004730000000005365747320612073656172631D
S3150800474068206D6F646520666F722066696E6420E6
S315080047506A6F696E61626C6520616E642066696E57
S315080047606420756E757365642E00000042697420B6
S3150800477030203D20656E61626C6520322E344748D4
S315080047807A2C204269742031203D20656E61626C66
S3150800479065207375622D47487A1F00005072696E4E
S315080047A07473206E6574776F726B207365617263BC
S315080047B06820706172616D657465727320286D6F0B
S315080047C0646520616E64206368616E6E656C206D39
S315080047D061736B73292E00005072696E7473206FB3
S315080047E075742067656E6572616C20696E666F7296
S315080047F06D6174696F6E2061626F75742074686587
S31508004800207374617465206F6620746865207374FC
S3150800481061636B2E000000005072696E7473206F1E
S3150800482075742074686520656E747269657320698D
S315080048306E2074686520737461636B73206368699E
S315080048406C64207461626C652E0000005072696E9B
S315080048507473206F75742074686520656E74726948
S31508004860657320696E2074686520737461636B7361
S31508004870206E65696768626F72207461626C652E66
S31508004880000000005072696E7473206F757420748E
S31508004890686520656E747269657320696E20746830
S315080048A06520737461636B7320726F757465207409
S315080048B061626C652E000000466F726D7320612080
S315080048C06E6574776F726B206F6E206120676976EC
S315080048D0656E206368616E6E656C2C2077697468F6
S315080048E0206120676976656E20545820506F776579
S315080048F07220616E642050414E2049442E0000000B
S31508004900546865206368616E6E656C206F6E2077EB
S315080049106869636820746F20666F726D20746865B5
S31508004920206E6574776F726B1F4F6E652D62797492
S3150800493065207369676E65642076616C75652069A4
S315080049406E6469636174696E67207468652054587B
S3150800495020506F77657220746861742074686520CA
S31508004960726164696F2073686F756C642062652074
S3150800497073657420746F1F5468652050414E204932
S3150800498044206F6E20776869636820746F20666FAD
S31508004990726D20746865206E6574776F726B1F0080
S315080049A04A6F696E732061206E6574776F726B202B
S315080049B06F6E206120676976656E206368616E6E2A
S315080049C0656C2C2077697468206120676976656E46
S315080049D020545820506F77657220616E64205041CC
S315080049E04E2049442E000000546865206368616EB5
S315080049F06E656C206F6E20776869636820746F2017
S31508004A006A6F696E20746865206E6574776F726B5D
S31508004A101F4F6E652D62797465207369676E6564CC
S31508004A202076616C756520696E6469636174696E68
S31508004A30672074686520545820506F776572207413
S31508004A406861742074686520726164696F20736890
S31508004A506F756C642062652073657420746F1F54CB
S31508004A6068652050414E204944206F6E207768695A
S31508004A70636820746F206A6F696E20746865206E9B
S31508004A806574776F726B1F005475726E732070654C
S31508004A90726D6974206A6F696E696E67206F6E2021
S31508004AA0666F722074686520616D6F756E74206F0D
S31508004AB0662074696D6520696E64696361746564EE
S31508004AC02E000000412073696E676C652062797458
S31508004AD06520696E6469636174696E6720686F77BB
S31508004AE0206C6F6E672074686520646576696365F7
S31508004AF02073686F756C64206861766520706572CE
S31508004B006D6974206A6F696E696E67207475726E56
S31508004B10206F6E20666F722E20412076616C756557
S31508004B20206F662030786666207475726E73207002
S31508004B3065726D6974206A6F696E20696E64656650
S31508004B40696E6974656C792E1F0000004C65617684
S31508004B5065732061206E6574776F726B2E00000096
S31508004B6052654A6F696E732061206E6574776F723D
S31508004B706B2E0000426F6F6C65616E206E657477F0
S31508004B806F726B206B657920617661696C61626909
S31508004B906C6974791F4368616E6E656C206D61730C
S31508004BA06B1F000052656A6F696E7320616E20651F
S31508004BB078697374696E67206E6574776F726B2097
S31508004BC0696E206120736563757265206F7220694E
S31508004BD06E736563757265206D616E6E657220779A
S31508004BE0697468206120646966666572656E7420FA
S31508004BF064657669636520747970652E0000000027
S31508004C00426F6F6C65616E206E6574776F726B208C
S31508004C106B657920617661696C6162696C69747922
S31508004C201F4368616E6E656C206D61736B1F416E04
S31508004C3020656E756D65726174696F6E20696E6444
S31508004C4069636174696E672074686520646576694E
S31508004C506365207479706520746F2072656A6F6960
S31508004C606E2061732E54686520737461636B206FC0
S31508004C706E6C79206163636570747320454D424597
S31508004C80525F454E445F44455649434520616E642C
S31508004C9020454D4245525F534C454550595F454E58
S31508004CA0445F4445564943452E1F000057726974B0
S31508004CB065732074686520657874656E646564201C
S31508004CC070616E20494420666F722074686520649E
S31508004CD065766963652E000065787470616E69642F
S31508004CE01F000000436865636B73206E6574776FF9
S31508004CF0726B20706A6F696E207374617475732E97
S31508004D00000000005065726D697473206A6F696EE1
S31508004D10696E67206F6E20746865206E6574776F9C
S31508004D20726B20666F72206120676976656E206EE9
S31508004D30756D626572206F66207365636F6E647346
S31508004D4020414E442062726F6164636173747320FC
S31508004D5061205A444F204D676D74205065726D6905
S31508004D6074204A6F696E696E67207265717565731E
S31508004D707420746F20616C6C20726F757465727321
S31508004D802E000000412073696E676C652062797495
S31508004D906520696E6469636174696E6720686F77F8
S31508004DA0206C6F6E67207468652064657669636534
S31508004DB02073686F756C642068617665207065720B
S31508004DC06D6974206A6F696E696E67207475726E94
S31508004DD06564206F6E20666F722E20412076616CA6
S31508004DE07565206F662030786666207475726E73F6
S31508004DF0206F6E207065726D6974206A6F696E2007
S31508004E00696E646566696E6974656C792E1F000043
S31508004E1066696E644A6F696E61626C654E65747721
S31508004E206F726B0066696E64556E75736564506162
S31508004E306E496400417474656D70747320746F20D4
S31508004E406368616E676520646576696365206F7659
S31508004E50657220746F206120646966666572656E86
S31508004E6074206368616E6E656C20676976656E206E
S31508004E70696E20746865206368616E6E656C206172
S31508004E807267756D656E742E0000000054686520A3
S31508004E906368616E6E656C20746F206368616E6707
S31508004EA06520746F1F00000053657473207468656D
S31508004EB0206E6574776F726B20696E6465782075ED
S31508004EC073656420627920616C6C206675747572EE
S31508004ED06520434C4920636F6D6D616E64732E20A7
S31508004EE0204265666F726520657865637574696EBC
S31508004EF067206120434C4920636F6D6D616E642C99
S31508004F0020746865206672616D65776F726B2073B1
S31508004F107769746368657320746F20746869732091
S31508004F206E6574776F726B2E2020416674657220E9
S31508004F3074686520636F6D6D616E642066696E695D
S31508004F407368657320657865637574696E672C2068
S31508004F50746865206672616D65776F726B2073770A
S31508004F60697463686573206261636B20746F20746B
S31508004F7068652070726576696F7573206E657477DB
S31508004F806F726B2E202054686520434C4920757338
S31508004F906573207468652073616D65206E65747726
S31508004FA06F726B20696E64657820756E74696C2003
S31508004FB074686520646576696365207265736574CF
S31508004FC073206F72206974206973206368616E6745
S31508004FD06564207468726F756768207468697320E1
S31508004FE0636F6D6D616E642E00000000696E646506
S31508004FF0781F0000496E697469616C697A65732067
S3150800500061206E6574776F726B3B207468697320D4
S3150800501069732061207465737420636F6D6D616EAA
S3150800502064207573656420666F722074632D7377C8
S3150800503061702D6F75742074657374696E672E00C0
S315080050405072696E74732074686520637572726530
S315080050506E74204E6F64652049442C2045554936A8
S31508005060342C20616E642050616E2049442E000065
S315080050705377697463686573206265747765656ECE
S3150800508020646966666572656E74206B6565702056
S31508005090616C697665206D6F6465732073757070D1
S315080050A06F72746564206279206120726F75746509
S315080050B0722E00004B65657020616C697665206DFF
S315080050C06F64651F00000000417474656D70747329
S315080050D020746F206368616E676520746865206355
S315080050E068696C642074696D656F7574206F707477
S315080050F0696F6E206D61736B20746F2066696C74BE
S315080051006572206F757420756E6465736972616265
S315080051106C652076616C7565732028652E672E2070
S315080051206E6F206D6F7265207468616E203320641F
S31508005130617973292E00000074696D656F75742096
S315080051406F7074696F6E206D61736B1F00000000CD
S315080051505573656420746F207374617274206D755D
S315080051606C74692D50485920696E7465726661635E
S3150800517065206F74686572207468616E206E61744C
S3150800518069766520616E6420666F726D2074686545
S31508005190206E6574776F726B2E2054686520737461
S315080051A061636B20757365732073616D652050614B
S315080051B06E4964206173206E617469766520726138
S315080051C064696F206E6574776F726B2E000000003D
S315080051D0706167651F6368616E6E656C1F706F77B7
S315080051E065721F6F7074696F6E734D61736B2028DB
S315080051F04269742030203D20526F757465727320A1
S31508005200616C6C6F7765642C204269742031203D8F
S315080052102042726F61646361737420616C6C6F778E
S315080052206564291F000000005465726D696E61741B
S31508005230657320746865206D756C74692D504859BE
S3150800524020696E7465726661636500005072696EE6
S31508005250747320616C6C2073656375726974792048
S315080052606B6579732E00000044656C65746520745F
S31508005270686520737065636966696564206C696E24
S315080052806B206B657920696E6465782E00000000D6
S31508005290436C6561727320616C6C2073656375720B
S315080052A0697479206B6579732E0000005072696EF7
S315080052B07473207468652062696E64696E67207409
S315080052C061626C6520746F2074686520636F6D6D0C
S315080052D0616E64206C696E652E000000436C656122
S315080052E07273207468652062696E64696E672074DB
S315080052F061626C652E0000005365747320746865DE
S315080053002062696E64696E67207461626C6500006C
S31508005310696E6465781F636C75737465721F6C6F4C
S3150800532063616C45701F72656D6F746545701F65A6
S31508005330756936341F000000456E61626C6573201E
S315080053407072696E74696E67206F66205278206D78
S31508005350657373616765732E0000000044697361A5
S31508005360626C6573207072696E74696E67206F6609
S31508005370205278206D657373616765732E0000008F
S3150800538074617267657449641F00000070726F6605
S31508005390696C6549641F636C757374657249641F2B
S315080053A000000000426F6F6C3A20616C6C6F7720CA
S315080053B074727573742063656E7465722072656A9B
S315080053C06F696E207573696E672077656C6C2D6BD7
S315080053D06E6F776E206B65791F00000074696D65C6
S315080053E06F75741F000000005443206C696E6B20B3
S315080053F06B6579207265717565737420706F6C6959
S3150800540063791F417070206C696E6B206B6579201B
S315080054107265717565737420706F6C6963791F00A6
S315080054206B65791F00000000696E6465781F6575F5
S315080054306936341F6B65791F00000000696E646564
S31508005440781F65756936341F696E7374616C6C43B1
S315080054506F64651F0000000053656E647320612049
S315080054605A444F20726F757465207265717565733D
S315080054707420636F6D6D616E6420746F2074686547
S31508005480207461726765742E00000000746172678B
S3150800549065741F696E6465781F00000053656E6445
S315080054A0732061205A444F20506F776572204465F7
S315080054B07363726970746F7220526571756573745F
S315080054C020746F207468652074617267657420643F
S315080054D065766963652E00007461726765741F00DE
S315080054E053656E64732061205A444F204D474D54CE
S315080054F02D4C514920284C5149205461626C65292C
